:200000000C944E240C947F240C947F240C947F240C947F240C947F240C947F240C947F24F9
:200020000C947F240C947F240C947F240C947F240C947F240C943C8D0C947F240C947F2482
:200040000C947F240D9480110C947F240C947F240C947F240C947F240C94738B0D9419497E
:200060000C947F240D94D44F0C947F240C947F240C947F240C947F240C947F240C947F24E7
:200080000D94A1130C947F240C947F240C947F240C947F240C947F240C947F240C947F2436
:2000A0000C947F240C947F240D9473130C947F240C947F240C947F240C947F240D9445138E
:2000C0000C947F240C947F240C947F240C947F240C947F240C947F240C94895D0C944A5DC1
:2000E0000C947F245F3C7C3CAD3CCA3CDF3C093D763DDC3D893E0A429E424B43734377435D
:20010000D843C347ED43394460448944B5440C451D453145424553456445C347C046C34798
:20012000CB463B474F476F47F4876C86A5863088A586A586A586A586A586A586A586A58638
:20014000A586A586A586A586A586A586A586A586A586A586A586A586A586A586A586A586EF
:20016000A586A5862A88A586A586A586A586A586A586A586A5860388A586A586A586A586E8
:20018000A586A586A586A586A586A5864788A2869E0132012602FC01DA0134017A02C8011A
:2001A00052013801A401840192015001E401480104026C027E027A01A80110021A028E01A2
:2001C000480186015602D6010E024002280100023C011202D8016802AC01420176020202A3
:2001E0004C018C011202E2011E026A025A02C2015E02600274010A0250020A025A013E0247
:200200000A028801084AD73B3BCE016E84BCBFFDC12F3D6C74319ABD56833DDA3D00C77F69
:2002200011BED9E4BB4C3E916BAAAABE000000803F05A84CCDB2D44EB93836A9020C50B99F
:20024000918688083CA6AAAA2ABE000000803F000D943D480D94A03B0C9477430D94FF3F3F
:200260000C944B430D9464050D9479050D94E40C0D9476050C94763D0D9451480C94F487D2
:200280000D94DC390D9475480C94CB460C94ECF70D94D7450C94D09E0D9498480D94DF3911
:2002A0000D9493450D9473050C94CA3C0C9498990C94B5440D9439500C9447880D9412430D
:2002C0000C94F3A10D94FE080C94DC3D0C943B470C94849F0C94DE9F0C94E8D10C94A6D118
:2002E0000C9431450C94B8FA0D9431500C949E420D946D0B0D94B2450C9473430C94969324
:200300000C94A2860D944B3D0D94A0450D94CA450D9443500C9497880D94A2480D94C4458E
:200320000D94E1390D948F450D9401400C94DF3C0C9460440C94894B0C94769E0D947E0560
:200340000C94E79B0C94ED430D949D450C9442450D94B6450C9439440D946B480C94093D0E
:200360000C945F3C0C9453450D940D430D94EF090C946F470C94754B0C9424690C9492A0CB
:200380000C941C9E0D940D500C942A9F0C9448C10D948A050C946D9D0C941D450C9479D32B
:2003A0000C940C8D0C94CAA10D9415430D94D2450D945B480D946D050C9430880C942A8847
:2003C0000C9489440D94AC480D9499450C94B54B0C9403F80C942E4B0C947ED30D94E70CC3
:2003E0000C9464450C94A9FA0C9440FA0C94AC9C0C947C3C0C948A4B0D946A050C9433A55A
:200400000D9447480D9489480D94A4450C94D8430C94B3FA0D9446500C94AEFA0D9433480D
:200420000D94BC450D94CA480C94E2F80D94A4580C940A420D94C0450C948BD60D94B6481E
:200440000C94394B0D94675A0C9422FC0D9467050C94A0D10D94060F0C94893E0C943A8DB6
:200460000C941CA10C9496BF0C94EC4A0D94B9390C94D3980C9438A00C94ACD10D943D50F3
:200480000D9438480C94E59D0C94AD3C0D94EA0C0C944F470C94FF850C94C0460C94A5862E
:2004A0000D9435500C945D9A0C94229B0D94CE450C941AF80D9407500C94594B0D941E5071
:2004C0000D9429500C946C860C9449D70C9403880D9463480D94C0480D94A8450C940C4511
:2004E0000C9474D30D940F430C94E28C0D947F480C946FD30D9470050C94C3470D94AE4576
:200500004E414E494E495459494E46CDCCCC3D0AD7233C17B7D13877CC2B329595E6241FE8
:20052000B14F0A000020410000C84200401C4620BCBE4CCA1B0E5AAEC59D74434F4D4D556C
:200540004E49434154494F4E0044525952554E004552524F525300494E464F004543484F3A
:200560000047322F47332062616420706172616D65746572730A00536C6565702E2E2E0031
:20058000205A3A200020593A200042656420583A20004D65736820706F696E742063616EAE
:2005A0006E6F74206265207265736F6C7665640A00436C69636B20746F20726573756D65DB
:2005C0002E2E2E004E6F206D6F76652E00456E642066696C65206C6973740A00426567699B
:2005E0006E2066696C65206C6973740A004D31323500286E6F2066696C65290053442070ED
:2006000072696E74696E67206279746520004E6F74205344207072696E74696E670A00432B
:20062000757272656E742066696C653A20005072696E742074696D653A20006F6E2E0A00B5
:200640006F66662E0A0047323620446562756720005C055705500549053B056F6666004432
:20066000454255473A004D3131332053006F6B00416E796375626963206933204D6567616A
:20068000204F66662E002C20002C2000544845524D414C5F50524F54454354494F4E0041A5
:2006A00055544F5245504F52545F53445F53544154555300454D455247454E43595F50419E
:2006C0005253455200434153455F4C494748545F4252494748544E45535300544F47474C16
:2006E000455F4C494748545300534F4654574152455F504F574552004255494C445F5045D0
:200700005243454E54004C4556454C494E475F44415441005A5F50524F4245004155544F24
:200720004C4556454C005052494E545F4A4F420050524F4752455353004155544F524550E5
:200740004F52545F54454D5000564F4C554D455452494300454550524F4D005345524941C9
:200760004C5F584F4E5F584F4646004649524D574152455F4E414D453A4D61726C696E20AD
:20078000312E312E3920284769746875622C20646176696472616D69726F29204D41524C64
:2007A000494E2D4149334D5F56455253494F4E3A76312E342E3620534F555243455F434F5D
:2007C00044455F55524C3A68747470733A2F2F6769746875622E636F6D2F646176696472A0
:2007E000616D69726F2F4D61726C696E2D4149334D2050524F544F434F4C5F56455253499E
:200800004F4E3A312E30204D414348494E455F545950453A416E7963756269632069332078
:200820004D6567612045585452554445525F434F554E543A3120555549443A636564653204
:200840006132662D343161322D343734382D396231322D6335356336326633363766660AAA
:20086000002F2F20004D31343520533C696E6465783E206F7574206F662072616E67652054
:2008800028302D31290A00205400205200416363656C65726174696F6E3A2050005741522B
:2008A0004E494E4721204C6F77205A204A65726B206D6179206C65616420746F20756E77D9
:2008C000616E746564207061757365732E0A0020466C6F773A20000001363726032BFFFF51
:2008E000FF3C3D382AFFFFFFFF2E303E12FFFFFFFFFF02FF0809FF2C071A1C18FFFFFF08E2
:20090000440A2C4324221E206F7574206F662072616E67650A00536572766F20003A200089
:2009200020536572766F200043290A0061626C656420286D696E2074656D702000436F6C5A
:200940006420657874727564657320617265200020643A0020693A0020703A004E6F20639C
:20096000617365206C696768740A004D65736820706F696E742063616E6E6F74206265207B
:200980007265736F6C7665640A004D34323120696E636F727265637420706172616D657412
:2009A00065722075736167650A00454550524F4D204F4B0A00205A004475616C20456E645E
:2009C00073746F702041646A7573746D656E7420286D6D293A20003F5A206F7574206F6667
:2009E0002072616E676520282D323020746F203230290A003A200050726F6265205A204F00
:200A00006666736574003F4B2076616C7565206F7574206F662072616E67652028302D3187
:200A200030292E0A00416476616E6365204B3D004163746976652045787472756465723AC2
:200A40002000496E76616C69642065787472756465720A004D363030005370656369616C6E
:200A6000204D656E753A2046696C616D656E744368616E676520526573756D650A00537093
:200A8000656369616C204D656E753A2046696C616D656E744368616E6765205061757365B5
:200AA0000A004732380A473239005370656369616C204D656E753A204175746F204265642B
:200AC000204C6576656C696E670A004D31343020533630005370656369616C204D656E7585
:200AE0003A2050726568656174204265640A004D353032005370656369616C204D656E7544
:200B00003A204C6F61642046572044656661756C74730A004D353030005370656369616C39
:200B2000204D656E753A205361766520454550524F4D0A004D33303320452D3120533630A6
:200B4000204336205531005370656369616C204D656E753A204175746F2054756E652048C9
:200B60006F74626564205069640A004D31303620533230340A4D33303320453020533231DB
:200B80003020433135205531005370656369616C204D656E753A204175746F2054756E6591
:200BA00020486F74656E64205049440A004D313038004D313038004D3234004D3234004A30
:200BC0003233004D32350047393000473120452D3320463138303000473931003C537065CB
:200BE0006369616C5F4D656E753E003C5370656369616C5F4D656E753E002F002F002F006E
:200C00002F2E2E0A002F2E2E002F2E2E003C5370656369616C5F4D656E753E0A003C5370F1
:200C2000656369616C204D656E753E003C5370656369616C204D656E753E003C46696C611B
:200C40006D656E744368616E676520526573756D653E003C46696C616D656E744368616EE5
:200C6000676520526573756D653E003C46696C616D656E744368616E676520506175736509
:200C80003E003C46696C616D656E744368616E67652050617573653E003C4C6F61642046E6
:200CA000572044656661756C74733E003C4C6F61642046572044656661756C74733E003CFC
:200CC0004175746F2054756E6520486F74626564205049443E003C4175746F2054756E657D
:200CE00020486F74626564205049443E003C4175746F2054756E6520486F74656E642050C0
:200D000049443E003C4175746F2054756E6520486F74656E64205049443E003C45786974E4
:200D20003E003C457869743E003C5361766520454550524F4D3E003C5361766520454550AB
:200D4000524F4D3E003C4175746F20426564204C6576656C696E673E003C4175746F20429C
:200D60006564204C6576656C696E673E003C50726568656174206265643E003C50726568BD
:200D8000656174206265643E0056313136004A333320004D3530300A4D3432302053310A55
:200DA0004731205A313020463234300A4731205830205930204636303030004D3530300003
:200DC0004D383531205A0041395620004A3232004A3232004731205A3520463234300A47EE
:200DE000312058313930205932302046363030300A4731205A302046323430004731205A8F
:200E00003520463234300A4731205831393020593139302046363030300A4731205A302082
:200E200046323430004731205A3520463234300A4731205831393020593230204636303048
:200E4000300A4731205A302046323430004739310A4731205A313020463234300A47393076
:200E60000A4732380A4732390A473120583230205932302046363030300A4731205A30204C
:200E800046323430004A3032004A3132004731205A3130004F4B004731205A31300047395D
:200EA00030004731204525694635303000473120452D302E314625690047312045302E31E3
:200EC000462569004731205A2569462569004731205A2D302E31462569004731205A302E18
:200EE000314625690047312059256946256900473120592D302E31462569004731205930F8
:200F00002E314625690047312058256946256900473120582D302E314625690047312058DC
:200F2000302E31462569004739310047323800473238205A0047323820590047323820586E
:200F4000004132305620004731205A3130004A3034004A3231004A3230004B494C4C454469
:200F60002E20004A3136004A303400454E4400464E20004A3032003939393A393939004DB0
:200F80000048004137562000413656202D2D2D004A30320041365620005A3A2000593A20A7
:200FA00000583A200041355600413456200041335620004132562000413156200041305646
:200FC00020004D3237004D3834004739310A473120452D312046313830300A473930004A59
:200FE0003136004D313235204C32004A3138004A3134004A3030004A3031004A313000693C
:201000006E206D6F76655F746F282920666565645F76616C756520666F722058593A004C0A
:20102000656176696E6720473236004732362048656174696E67204E6F7A7A6C652E0047C1
:2010400032362048656174696E67204265642E00446F6E65205072696D696E670055736546
:20106000722D436F6E74726F6C6C6564205072696D65004669786564204C656E677468200C
:201080005072696D652E004D6573682056616C69646174696F6E2053746F707065642E0040
:2010A0002C2065793D0029202D3E202865783D002C2073793D0020436F6E6E656374696E7D
:2010C00067207769746820766572746963616C206C696E65202873783D002C2065793D00B4
:2010E00029202D3E202865783D002C2073793D0020436F6E6E656374696E67207769746861
:2011000020686F72697A6F6E74616C206C696E65202873783D004C656176696E67204732CE
:2011200036003F53706563696669656420582C5920636F6F7264696E617465206F757420D1
:201140006F6620626F756E64732E0A003F28522965706561742076616C7565206E6F742018
:20116000706C61757369626C653B206D757374206265206174206C6561737420312E0A00EC
:201180003F537065636966696564206E6F7A7A6C652074656D7065726174757265206E6FF7
:2011A0007420706C61757369626C652E0A003F5370656369666965642066696C616D656EDB
:2011C000742073697A65206E6F7420706C61757369626C652E0A003F5370656369666965CF
:2011E00064207072696D65206C656E677468206E6F7420706C61757369626C652E0A003FE3
:20120000537065636966696564206E6F7A7A6C652073697A65206E6F7420706C6175736986
:20122000626C652E0A003F496E76616C69642052657472616374696F6E2F556E7265747253
:20124000616374696F6E20726174696F2E204D7573742062652077697468696E20356D6D11
:201260002E0A0020556E72657472616374696F6E20616D6F756E74206175746F6D617469E0
:2012800063616C6C792073657420746F20003F53706563696669656420556E7265747261DE
:2012A0006374696F6E206C656E677468206E6F7420706C61757369626C652E0A003F556EE3
:2012C00072657472616374696F6E206C656E677468206D75737420626520737065636966C7
:2012E0006965642E0A003F5370656369666965642052657472616374696F6E206C656E67B8
:201300007468206E6F7420706C61757369626C652E0A003F52657472616374696F6E206C81
:20132000656E677468206D757374206265207370656369666965642E0A003F537065636990
:2013400066696564206C6179657220686569676874206E6F7420706C61757369626C652E9F
:201360000A003F537065636966696564206265642074656D7065726174757265206E6F740E
:2013800020706C61757369626C65202834302D31343043292E0A0047323620636F6D6D617E
:2013A0006E6420737461727465642E2057616974696E6720666F7220686561746572287388
:2013C000292E0A0024F4D43050C38E20C2A24017828B7011127A910D816CD90AA861E1089A
:2013E000C7586607615143061E4B5D05C145A7041A411104093D9803713931034036DB0268
:2014000065339102D4305402802E1D02632CEE01752AC501B028A001102781018F2564014C
:201420002B244B01E0223401AC211F018D200D01801FFC00841EED00971DDF00B81CD200CF
:20144000E61BC600201BBC00641AB200B219A8000A19A0006A189900D117910040178B00F2
:20146000B516840031167E00B31579003A157300C7146F0058146A00EE13660088136300D0
:2014800025135E00C7125B006C12570015125400C111510070114F0021114B00D610490093
:2014A0008D1047004610440002104200C00F4000800F3E00420F3C00060F3B00CB0E380090
:2014C000930E37005C0E3500270E3400F30D3200C10D3100900D3000600D2E00320D2D0027
:2014E000050D2C00D90C2B00AE0C2900850C29005C0C2700350C27000E0C2600E80B2400B3
:20150000C40B2400A00B23007D0B23005A0B2100390B2100180B2000F80A1F00D90A1E000F
:20152000BB0A1E009D0A1D00800A1D00630A1C00470A1B002C0A1B00110A1A00F7091A00C8
:20154000DD091900C4091900AB091900920917007B091800630917004C0916003609160048
:20156000200916000A091500F5081500E0081400CC081400B8081400A408140090081300CF
:201580007D0812006B0813005808120046081200340811002308110012081100010811008E
:2015A000F0071000E0071000D0071000C0071000B0070F00A107100091070E0083070F00B2
:2015C00074070F0065070E0057070E0049070E003B070D002E070E0020070D0013070D0050
:2015E00006070D00F9060C00ED060D00E0060C00D4060C00C8060C00BC060C00B0060C0084
:20160000A4060B0099060C008D060B0082060B0077060B006C060B0061060A0057060B005B
:201620004C060A0042060A0038060A002E060A0024060A001A060A001006090007060A00E2
:20164000FD050900F4050900EB050900E2050900D9050900D0050900C7050900BE0509002E
:20166000B5050800AD050800A50509009C050800940508008C050800840508007C0508003E
:20168000740508006C050700650508005D050700560508004E050700470507004005080019
:2016A00038050700310507002A050700230507001C050600160507000F05070008050600CD
:2016C00002050700FB040600F5040700EE040600E8040600E2040700DB040600D50406005C
:2016E000CF040600C9040600C3040600BD040600B7040600B1040500AC040600A6040600C9
:20170000A00405009B04060095040500900406008A04050085040500800406007A04050015
:2017200075040500700405006B04050066040500610405005C040500570405005204050045
:201740004D04050048040500430405003E0404003A04050035040500300404002C04050062
:2017600027040400230405001E0404001A04040016040500110404000D0404000904050067
:201780000404040000040400FC030400F8030400F4030400F0030400EC030400E80304005F
:2017A000E4030400E0030400DC030400D8030400D4030400D0030400CC030400C803030042
:2017C000C503030024F404D9201BC40C5C0E9804C4095F0265077101F405F900FB04B30088
:2017E00048048700C10369005803550003034500BE023A008402310053022A00290225006E
:2018000004022000E4011C00C8011900AF01170098011400840113007101100061011000BF
:2018200051010E0043010D0036010B002B010B0020010B00150109000C0109000301080011
:20184000FB000800F3000800EB000700E4000600DE000600D8000600D2000600CC00050043
:20186000C7000500C2000500BD000400B9000400B5000400B1000400AD000400A90004008B
:20188000A5000300A20003009F0004009B000300980003009500020093000300900003005F
:2018A0008D0002008B000300880002008600020084000300810002007F0002007D000200EF
:2018C0007B0002007900020077000100760002007400020072000100710002006F00020053
:2018E0006D0001006C0002006A00010069000200670001006600010065000100640002009B
:201900006200010061000100600001005F0002005D0001005C0001005B0001005A000100CE
:201920005900010058000100570001005600010055000100540001005300000053000100F3
:201940005200010051000100500001004F0001004E0000004E0001004D0001004C00010009
:201960004B0000004B0001004A00010049000100480000004800010047000100460000001C
:20198000460001004500000045000100440001004300000043000100420000004200010024
:2019A0004100000041000100400001003F0000003F0001003E0000003E0001003D0000002A
:2019C0003D0001003C0000003C0000003C0001003B0000003B0001003A0000003A00010028
:2019E000390000003900010038000000380000003800010037000000370001003600000026
:201A000036000000360001003500000035000000350001003400000034000000340001001C
:201A2000330000003300000033000100320000003200000032000100310000003100000013
:201A4000310001003000000030000000300001002F0000002F0000002F0000002F00010006
:201A60002E0000002E0000002E0001002D0000002D0000002D0000002D0001002C000000FA
:201A80002C0000002C0000002C0001002B0000002B0000002B0000002B0001002A000000EA
:201AA0002A0000002A0000002A0001002900000029000000290000002900000029000100D9
:201AC0002800000028000000280000002800000028000100270000002700000027000000C8
:201AE0002700000027000100260000002600000026000000260000002600010025000000B3
:201B000025000000250000002500000025000000250001002400000024000000240000009F
:201B200024000000240001002300000023000000230000002300000023000000230000008A
:201B4000230001002200000022000000220000002200000022000000220001002100000073
:201B600021000000210000002100000021000000210000002100010020000000200000005E
:201B80002000000020000000200000002000000020000000200001001F0000001F00000046
:201BA0001F0000001F0000001F0000001F0000001F0001001E0000001E0000001E0000002F
:201BC0001E000000232C0000B8220000561800003A0F0000B8080000B1040000710200001F
:201BE0003E01000020746F6F206C6F6E6720657874727573696F6E2070726576656E7465CA
:201C0000640A0020636F6C6420657874727573696F6E2070726576656E7465640A003A0A48
:201C20000020286D6D290020204D36303320002055004C0046696C616D656E74206C6F61C6
:201C4000642F756E6C6F6164206C656E677468733A0A0020204D393030204B004C696E65FC
:201C6000617220416476616E63653A0A0020204D383531205A005A2D50726F6265204F6682
:201C8000667365740020440020490020204D33303420500020440020490020204D33303143
:201CA0002050005049442073657474696E67733A0A0020460020420020480020204D3134E0
:201CC000352053004D6174657269616C2068656174757020706172616D65746572733A0AEE
:201CE00000205A0020204D36363600456E6473746F702061646A7573746D656E743A0A00BB
:201D0000205A00204A0020204732392057204900205A0020204D3432302053004175746F64
:201D200020426564204C6576656C696E673A0A00205A0020590020204D3230362058004806
:201D40006F6D65206F66667365743A0A00204500205A002059002058002054002053002080
:201D6000204D32303520510020453C6D61785F655F6A65726B3E0020583C6D61785F785FCA
:201D80006A65726B3E20593C6D61785F795F6A65726B3E205A3C6D61785F7A5F6A65726B5D
:201DA0003E00416476616E6365643A20513C6D696E5F7365676D656E745F74696D655F7570
:201DC000733E20533C6D696E5F66656564726174653E20543C6D696E5F74726176656C5F42
:201DE00066656564726174653E0020540020520020204D323034205000416363656C65723D
:201E00006174696F6E2028756E6974732F7332293A20503C7072696E745F616363656C3E87
:201E200020523C726574726163745F616363656C3E20543C74726176656C5F616363656CD5
:201E40003E0A00204500205A0020590020204D3230312058004D6178696D756D2041636345
:201E6000656C65726174696F6E2028756E6974732F7332293A0A00204500205A002059008B
:201E800020204D3230332058004D6178696D756D206665656472617465732028756E6974EF
:201EA000732F73293A0A00204500205A0020590020204D39322058005374657073207065D4
:201EC0007220756E69743A0A0020204D3230302044300A0020204D3230302044002044695F
:201EE0007361626C65640A0046696C616D656E742073657474696E67733A0020204D313480
:201F0000392043203B20556E69747320696E2043656C736975730A00202047323120202054
:201F2000203B00545249474745524544006F70656E003A20007A5F70726F6265007A325FA1
:201F40006D696E007A5F6D696E00795F6D696E00785F6D696E005265706F7274696E67200F
:201F6000656E6473746F70207374617475730A000000000100000001000080005555550015
:201F80000000400033333300AAAA2A004992240000002000C7711C0099991900D1451700FF
:201FA000555515003BB113002449120011111100000010000F0F0F00E3380E0043790D0082
:201FC000CCCC0C00C3300C00E8A20B0064210B00AAAA0A00703D0A009DD80900427B0900E0
:201FE00092240900DCD30800888808001042080000000800F0C10700878707007550070058
:20200000711C07003EEB0600A1BC06006990060066660600703E06006118060017F4050086
:2020200074D105005BB00500B2900500627205005555050078390500B81E050005050500D7
:202040004EEC040087D40400A1BD040090A7040049920400C17D0400EE690400C7560400A9
:20206000444404005C3204000821040041100400000004003FF00300F8E0030026D20300B4
:20208000C3C30300CCB503003AA803000A9B0300388E0300C08103009F750300D069030046
:2020A000505E03001D53030034480300913D03003333030016290300381F030097150300F8
:2020C000300C0300030303000BFA020049F10200BAE802005CE002002DD802002DD002008D
:2020E00059C80200B0C0020031B90200DAB10200AAAA0200A0A30200BC9C0200FA9502004C
:202100005C8F0200DF88020082820200457C02002776020027700200436A02007C640200D7
:20212000D05E02003F590200C85302001000C90210012C014001220170011801B0010E01F1
:20214000F00104015002FA00B002F0003003E600D003DC009004D2007005C800A006BE00CC
:202160000008B400B009AA00D00BA000600E960060118C000015820020197800C01D6E0031
:20218000A0226400B0275A00902C500000314600E0343C0010383200903A2800603C1E00EF
:2021A000A03D1400803E0A00203F0000453120544845524D414C2052554E415741590042DB
:2021C000454420544845524D414C2052554E4157415900546865726D616C2052756E617708
:2021E0006179004531204572723A204D415854454D50004572723A204D415854454D502011
:20220000424544004D415854454D5020747269676765726564004531204572723A204D494B
:202220004E54454D50004572723A204D494E54454D5020424544004D494E54454D502074E4
:202240007269676765726564004D383420582059205A204500202F002042403A0020403AE7
:2022600000024A3132004A3137001FFFFFFFFFFFFF600000000001FF400000000000FF80C5
:2022800000000000007F83CF00000C303F87FF80000C301F867980000C000F8C30C7838C65
:2022A00030E78C30CFC7CC31F38C30DCECEC33B98C30D86C6C33198C30D06C0C33198C30A5
:2022C000D86C0C33198C30DC6C0E3B198C30CF7C079F198C30C77C038F194000000000004C
:2022E00002600000000000061FFFFFFFFFFFF82020506C616E6E657242756666657242793F
:202300007465733A20002046726565204D656D6F72793A2000436F6D70696C65643A204AB1
:20232000756C20323120323032300A00207C20417574686F723A2028646176696472616D52
:2023400069726F290A00323031392D30342D303300204C61737420557064617465643A201E
:202360000076312E342E360A004D61726C696E2D4149334D00312E312E390A004D61726CBF
:20238000696E0020536F6674776172652052657365740A00205761746368646F67205265A6
:2023A0007365740A002042726F776E206F75742052657365740A002045787465726E616C97
:2023C0002052657365740A00506F77657255700A0073746172740A006175746F25692E67E0
:2023E000006572726F722077726974696E6720746F2066696C650A00456E6473746F707372
:202400002025632025632025632025630020503A00205A3A0020593A0020583A00656E6422
:2024200073746F7073206869743A2000446F6E6520736176696E672066696C652E0A004D31
:202440003239007C3C3E5E2B3D3F2F5B5D3B2C2A225C004572726F722077726974696E67F2
:2024600020746F20454550524F4D210A004368616E67652066696C616D656E740050726569
:202480006865617420414253005072656865617420504C41004368616E67652066696C61DC
:2024A0006D656E74005052494E542050415553454400554E4C4F41442046494C414D454E1A
:2024C00054004C4F41442046494C414D454E54005075726765206D6F726500436F6E746945
:2024E0006E756500524553554D45204F5054494F4E533A0020204E6F7A7A6C653A200063BE
:2025000068616E6765006F66207468652066696C616D656E74005761697420666F72207383
:20252000746172740020204E6F7A7A6C653A2000200066696C616D656E7420756E6C6F6115
:2025400064005761697420666F720020204E6F7A7A6C653A20002000506C656173652077EE
:202560006169742E2E2E0048656174696E67206E6F7A7A6C650020204E6F7A7A6C653A20F5
:2025800000200068656174206E6F7A7A6C652E00507265737320627574746F6E20746F00BD
:2025A00020204E6F7A7A6C653A2000746F20636F6E74696E75652E2E2E00616E64207072D8
:2025C00065737320627574746F6E00496E736572742066696C616D656E740020204E6F7A98
:2025E0007A6C653A2000200066696C616D656E74206C6F6164005761697420666F720020EA
:20260000204E6F7A7A6C653A2000200066696C616D656E7420707572676500576169742056
:20262000666F7200746F20726573756D65005761697420666F72207072696E740043617260
:20264000642072656D6F766564004361726420696E7365727465640000060900FE07019265
:202660000321207FFF07FF07FF000000060000010707060200808080808000800302020662
:202680000105A0A00507070600005050F850F850500507070600002078A07028F020050756
:2026A00007060000C0C810204098180507070600006090A040A89068020303060104C040C9
:2026C000800307070601002040808080402003070706010080402020204080050505060015
:2026E0000120A870A8200505050600012020F820200203030602FFC04080050101060003AC
:20270000F8020202060200C0C00505050600010810204080050707060000708888888888F4
:202720007003070706010040C040404040E0050707060000708808708080F8050707060097
:2027400000F81020100808F005070706000010305090F81010050707060000F880F008085F
:202760008870050707060000708080F0888870050707060000F808102020202005070706A6
:2027800000007088887088887005070706000070888878080870020505060200C0C000C0E4
:2027A000C00206060602FFC0C000C0408004070706000010204080402010050303060002B9
:2027C000F800F80407070601008040201020408005070706000070880810200020050707A4
:2027E00006000070880868A8A870050707060000708888F8888888050707060000F0888869
:20280000F08888F005070706000070888080808870050707060000F08888888888F0050792
:2028200007060000F88080F08080F8050707060000F88080F0808080050707060000708819
:2028400080B8888870050707060000888888F88888880107070602008080808080808005E3
:202860000707060000381010101090600507070600008890A0C0A0908805070706000080FA
:202880008080808080F805070706000088D8A8888888880507070600008888C8A89888883E
:2028A00005070706000070888888888870050707060000F08888F0808080050707060000D5
:2028C00070888888A89068050707060000F08888F0A090880507070600007880807008087E
:2028E000F0050707060000F820202020202005070706000088888888888870050707060045
:2029000000888888888850200507070600008888888888A8500507070600008888502050FD
:20292000888805070706000088888850202020050707060000F80810204080F8030707060E
:202940000100E08080808080E00505050600018040201008030707060100E0202020202090
:20296000E0050303060004205088050101060000F80202020602058040050505060000700D
:20298000087888780507070600008080B0C88888F005050506000070808088700507070690
:2029A0000000080868988888780505050600007088F880700507070600003048E040404059
:2029C000400506060600FF7088887808700507070600008080B0C8888888010707060200F1
:2029E000800080808080800308080601FF200020202020A040040707060000808090A0C036
:202A0000A090030707060100C04040404040E0050505060000D0A8A8A8A8050505060000F4
:202A2000B0C888888805050506000070888888700506060600FFF08888F0808005060606DC
:202A400000FF788888780808050505060000B0C880808005050506000070807008F00407E2
:202A6000070600004040E0404040300505050600008888889868050505060000888888504F
:202A8000200505050600008888A8A85005050506000088502050880506060600FF888888BE
:202AA000780870050505060000F8102040F8030707060100204040804040200107070602C2
:202AC000008080808080808003070706010080404020404080050202060002689000000035
:202AE000060000454550524F4D206461746173697A65206572726F722E0A00290A0020625C
:202B0000797465733B20637263200053657474696E67732053746F726564202800290A00E0
:202B20002062797465733B2063726320002073746F7265642073657474696E677320726562
:202B400074726965766564202800202863616C63756C6174656429210A0020213D200045A9
:202B60004550524F4D20435243206D69736D61746368202D202873746F72656429200020D5
:202B800053697A653A2000496E6465783A2000204D61726C696E3D563535290A0028454589
:202BA00050524F4D3D00454550524F4D2076657273696F6E206D69736D61746368200048CE
:202BC000617264636F6465642044656661756C742053657474696E6773204C6F6164656400
:202BE0000A00B80B0000D00700003C000000102700000000FA430000FA430000C040000044
:202C000070420000A0420000A0420000C843297CC94343616E6E6F74206F70656E20737545
:202C200062646972200053442063617264206F6B0A006F70656E526F6F74206661696C6507
:202C4000640A00766F6C756D652E696E6974206661696C65640A004572726F723A00534422
:202C600020696E6974206661696C0A006563686F3A0000060900FE000000000001090008C2
:202C8000FE000005080806000040F0C88888987810050808060000C0F88888888888F8057B
:202CA00005050600012030F830200508080600002070F820202020E00509090600FF2070BC
:202CC000A8A8B8888870200509090600FFE080C0B0A8283028280509090600FFF8A8888844
:202CE000888888A8F8050A0A0600FE205050505088A8A8887003030306000340A040257583
:202D00003A2530327500253032753A253032750025756420253032753A25303275002020BB
:202D200020202020005A005900202020200058000920000000000000000000000000003F20
:202D4000FFF000000000000000000000000038007000000000000000000000000030FC3080
:202D600000000000000000000000000020FC1000000000000000000000000020781000007F
:202D8000000000000000000000002030100000000000000000000000002C00D03FC00000D8
:202DA00000000000002082002E31D07FE0000000000000001041002F7BD07FE000000000B9
:202DC0000000001041002F7BD07FE0000000000000002082002E31D03FC0000000000000F9
:202DE000004104002C00D03FC0000000000000008208002030107FE00000000000000082C8
:202E000008002078107FE00000000000000041040020FC107FE00000000000000020820031
:202E200030FC301F80000000000000000000003800700F0000000000000000FFFFC03FFFE4
:202E4000F0060000000000000000FFFFC00000000000000000000000000000003FFFF00090
:202E60000000000000000000000000380070000000000000000000000000318630000000C3
:202E800000000000000000000023871000000000000000000000000027879000000000003A
:202EA000000000000000002F87D00000000000000000000000002F03D03FC000000000008B
:202EC00000002082002030107FE0000000000000001041002078107FE00000000000000039
:202EE0001041002078107FE0000000000000002082002030103FC000000000000000410434
:202F0000002F03D03FC0000000000000008208002F87D07FE0000000000000008208002790
:202F200087907FE0000000000000004104002387107FE00000000000000020820031863034
:202F40001F80000000000000000000003800700F0000000000000000FFFFC03FFFF0060029
:202F600000000000000000FFFFC0000000627573793A2070617573656420666F7220696E96
:202F80007075740A00627573793A2070617573656420666F7220757365720A00627573791C
:202FA0003A2070726F63657373696E670A004B494C4C45442E20004B494C4C206361757375
:202FC0006564206279204B494C4C20627574746F6E2F70696E0A004B494C4C45442E2000A2
:202FE0004B494C4C2063617573656420627920746F6F206D75636820696E61637469766563
:203000002074696D65202D2063757272656E7420636F6D6D616E643A2000506C65617365BE
:20302000207265736574005052494E5445522048414C544544004A3131005072696E746539
:20304000722068616C7465642E206B696C6C28292063616C6C6564210A000000A0C0000011
:2030600020C100000000000048420000484200008040000000005761726E696E673A204823
:203080006F6D696E672042756D702044697669736F72203C20310A000202040000A04000C3
:2030A00000A0400000004000005C430000614300004D43FFFFFF5072656865617420504C9B
:2030C0004120456E64005072656865617420504C4120426564005072656865617420504C02
:2030E00041005072657061726500507265686561742041425320456E640050726568656175
:203100007420414253204265640050726568656174204142530050726570617265004D340B
:203120003238004D323830205030205331363000424C546F7563682053656C662D54657300
:2031400074004D3238302050302053313230005072656865617420414253005072656865BB
:20316000617420504C4100436F6F6C646F776E004368616E67652066696C616D656E740082
:203180004368616E67652066696C616D656E74004D3630302042300044697361626C652030
:2031A0007374657070657273004D38340053657420686F6D65206F6666736574730052651A
:2031C00073657420424C546F75636800466164652048656967687400466164652048656963
:2031E000676874004661646520486569676874004F6666004F6E2000426564204C657665F4
:203200006C696E67004C6576656C20626564004732380A473239004175746F20686F6D65F2
:2032200000473238004D6F76652061786973004D61696E004D6F76652058004D6F76652026
:2032400059004D6F7665205A004578747275646572004D6F766520302E316D6D004D6F765F
:203260006520316D6D004D6F76652031306D6D004D6F7665206178697300457874727564E4
:203280006572004D6F7665205A004D6F76652059004D6F76652058004B6420002364656606
:2032A000696E652044454641554C545F004B69200023646566696E652044454641554C54C7
:2032C0005F004B70200023646566696E652044454641554C545F00504944204175746F7498
:2032E000756E652066696E6973686564212050757420746865206C617374204B702C204BFB
:203300006920616E64204B6420636F6E7374616E74732066726F6D2062656C6F7720696E21
:20332000746F20436F6E66696775726174696F6E2E680A00504944204175746F74756E6540
:20334000206661696C6564212074696D656F75740A00453120544845524D414C2052554EDE
:20336000415741590042454420544845524D414C2052554E4157415900546865726D616C0F
:203380002052756E617761790045312048656174696E67206661696C6564004265642068B8
:2033A000656174696E67206661696C65640048656174696E67206661696C656400504944EE
:2033C000204175746F74756E65206661696C6564212054656D706572617475726520746F21
:2033E0006F20686967680A00204B643A2000204B693A2000204B703A20000A20436C61735B
:2034000073696320504944200A002054753A2000204B753A2000206D61783A2000206D6913
:203420006E3A200020643A200020626961733A2000504944204175746F74756E6520666194
:20344000696C6564212054656D706572617475726520746F6F20686967680A0050494420C6
:203460004175746F74756E652073746172740A00504944204175746F74756E6520666169FD
:203480006C65642120426164206578747275646572206E756D6265720A004F66660A0046FE
:2034A000616465204865696768742000426564204C6576656C696E6720004661696C656483
:2034C00020746F20656E61626C6520426564204C6576656C696E670A004F666673657473FD
:2034E000206170706C696564004572723A20546F6F206661722100546F6F2066617220668D
:20350000726F6D207265666572656E636520706F696E740A00496E736572742066696C6109
:203520006D656E7420616E6420707265737320627574746F6E20286F72204D313038290A19
:2035400000507265737320627574746F6E20286F72204D3130382920746F20686561742065
:203560006E6F7A7A6C650A00496E736572742066696C616D656E7420616E6420707265738D
:203580007320627574746F6E20286F72204D313038290A004D38383820636F6F6C646F778E
:2035A0006E20726F7574696E6520646F6E650A004D383400546172676574206E6F74207284
:2035C0006561636865642C2071756575656420616E206172630A00556C74726162617365CA
:2035E00020636F6F6C646F776E20737461727465640A0053544F505045442E20005072698D
:203600006E7465722073746F707065642064756520746F206572726F72732E20466978201F
:20362000746865206572726F7220616E6420757365204D39393920746F2072657374617273
:20364000742E202854656D70657261747572652069732072657365742E205365742069743C
:203660002061667465722072657374617274696E67290A0053544F502063616C6C65642097
:2036800062656361757365206F6620424C546F756368206572726F72202D207265737461D6
:2036A00072742077697468204D3939390A0042696C696E656172204C6576656C696E67208A
:2036C000477269643A0A00486F6D696E67206661696C656400202844525952554E2900479D
:2036E0003239204175746F20426564204C6576656C696E67003F20284C2C522C462C4229CB
:20370000206F7574206F6620626F756E64732E0A003F2856296572626F7365206C65766527
:203720006C20697320696D706C61757369626C652028302D34292E0A00426164205A207619
:20374000616C75650A004E6F2062696C696E65617220677269640A004D3630303A20546FC5
:203760006F20636F6C6400486F74656E6420746F6F20636F6C640A0046696C652064656CA3
:20378000657465643A0044656C6574696F6E206661696C65642C2046696C653A20005072AC
:2037A0006F7465637465642050696E0A005374616E6461726420446576696174696F6E3AA2
:2037C00020002052616E67653A2000204D61783A2000204D696E3A20004D65616E3A200049
:2037E00046696E6973686564210A002072616E67653A2000206D61783A2000206D696E3A8F
:203800002000207369676D613A2000206D65616E3A20003A207A3A2000206F662000205A25
:2038200000205900205800476F696E6720746F3A00436C6F636B776973650A00436F756E23
:203840007465722D0020446972656374696F6E3A2000202020616E676C653A2000537461EC
:203860007274696E67207261646975733A2000506F736974696F6E696E672074686520709E
:20388000726F62652E2E2E0A003F4E756D626572206F66206C65677320696E206D6F7665B6
:2038A0006D656E74206E6F7420706C61757369626C652028302D3135292E0A003F202858B7
:2038C0002C5929206F7574206F6620626F756E64732E0A003F53616D706C652073697A656E
:2038E000206E6F7420706C61757369626C652028342D3530292E0A004D3438205A2D5072E5
:203900006F6265205265706561746162696C69747920546573740A003F2856296572626FAA
:203920007365206C6576656C20697320696D706C61757369626C652028302D34292E0A008A
:203940004578747275646572004D6F7665205A004D6F76652059004D6F7665205800507222
:20396000657061726500496E697469616C697A6520454550524F4D00436F6E74726F6C005F
:20398000526573746F7265206661696C73616665004C6F61642073657474696E677300498E
:2039A0006E697469616C697A6520454550524F4D0053746F72652073657474696E677300B8
:2039C000424C546F7563680046696C616D656E74004D6F74696F6E0054656D70657261746E
:2039E000757265004D61696E00507265686561742041425320636F6E66005072656865611C
:203A00007420504C4120636F6E66005049442D44005049442D44005049442D4900504944A3
:203A20002D49005049442D50005049442D50002008204661637400200820466163740020B0
:203A400008204D6178002008204D6178002008204D6178002008204D696E002008204D69D2
:203A60006E002008204D696E004F6666004F6E20004175746F74656D700046616E2073700D
:203A80006565640046616E2073706565640046616E20737065656400426564004265640056
:203AA000426564004E6F7A7A6C65004E6F7A7A6C65004E6F7A7A6C6500436F6E74726F6C94
:203AC0000053746F72652073657474696E6773004265640042656400426564004E6F7A7A76
:203AE0006C65004E6F7A7A6C65004E6F7A7A6C650046616E2073706565640046616E207303
:203B0000706565640046616E2073706565640054656D7065726174757265004D3234004D33
:203B2000323320257300556E6B6E6F776E20636F6D6D616E643A202200496E736572742068
:203B400066696C616D656E7420616E6420707265737320627574746F6E20286F72204D31F2
:203B60003038290A00486F74656E6420746F6F20636F6C640A0050726F62696E6720666152
:203B8000696C65640A0050726F62696E67206661696C656400205A3A200020593A2000423E
:203BA000656420583A200056652D6A65726B0056652D6A65726B0056652D6A65726B005658
:203BC0007A2D6A65726B00567A2D6A65726B0056792D6A65726B0056792D6A65726B005643
:203BE000792D6A65726B0056782D6A65726B0056782D6A65726B0056782D6A65726B004D31
:203C00006F74696F6E004573746570732F6D6D004573746570732F6D6D005A7374657073F8
:203C20002F6D6D005A73746570732F6D6D005973746570732F6D6D005973746570732F6D34
:203C40006D005873746570732F6D6D005873746570732F6D6D004D6F74696F6E0053746535
:203C600070732F6D6D004A65726B00416363656C65726174696F6E0056656C6F63697479B3
:203C80000050726F6265205A204F66667365740050726F6265205A204F66667365740043EF
:203CA0006F6E74726F6C004C6F6164206D6D004C6F6164206D6D004C6F6164206D6D0055A3
:203CC0006E6C6F6164206D6D00556E6C6F6164206D6D00556E6C6F6164206D6D0046696C07
:203CE0002E204469612E0046696C2E204469612E004F6666004F6E20004520696E206D6D67
:203D00003300416476616E6365204B00416476616E6365204B00436F6E74726F6C00022E25
:203D20002E004D61696E004D37303220542564004D36303020423020542564004D37303295
:203D4000203B2564004D3730312054256400FFFDFCFAF8F6F4F2F0EEECEAE9E7E5E3E1E0CA
:203D6000DEDCDAD9D7D5D4D2D0CFCDCBCAC8C7C5C3C2C0BFBDBCBAB9B7B6B4B3B2B0AFADAD
:203D8000ACAAA9A8A6A5A4A2A1A09E9D9C9A99989795949392908F8E8D8B8A898887868432
:203DA000838281807F7E7D7B7A797877767574737271706F6E6D6C6B6A69686766656463AC
:203DC0006261605F5E5D5C5B5A5958585756555453525150504F4E4D4C4B4A4A494847466D
:203DE00046454443424241403F3E3E3D3C3B3B3A39383837363535343332323130302F2E8F
:203E00002E2D2C2B2B2A292928272726252524232322212120201F1E1E1D1C1C1B1B1A193C
:203E2000191818171616151514131312121111100F0F0E0E0D0D0C0C0B0A0A090908080788
:203E40000706060505040403030202010000526573656E643A20006F6B0020746F6F206C9F
:203E60006F6E6720657874727573696F6E2070726576656E7465640A0020636F6C642065AF
:203E80007874727573696F6E2070726576656E7465640A0046696C616D656E742075736502
:203EA000643A200053746174733A20002C204C6F6E67657374206A6F623A2000546F746166
:203EC0006C2074696D653A200053746174733A20002C204661696C65643A20002C204669FE
:203EE0006E69736865643A20005072696E74733A200053746174733A20004A3036004A3080
:203F000034004A30370020573A004520436F6F6C696E672E2E2E00452048656174696E672C
:203F20002E2E2E004A3038004A30390020573A0042656420636F6F6C696E672E2E2E0042FF
:203F400065642068656174696E672E2E2E00205A3A0020593A0020436F756E7420583A00CC
:203F600020453A00205A3A0020593A00583A003A004361703A00205A002059005800202096
:203F80004D61783A2000205A00205900580020204D696E3A20004F6E20004F666600536FDE
:203FA000667420656E6473746F70733A200020643A0020693A0020703A00496E76616C698F
:203FC000642065787472756465720A00486F6D6520257325732573206669727374002066A1
:203FE000697273740A005A0059005800486F6D65200043616E6E6F7420656E74657220730D
:2040000075626469723A200057726974696E6720746F2066696C653A20006F70656E2066F7
:2040200061696C65642C2046696C653A20006F70656E206661696C65642C2046696C653A1E
:20404000200046696C652073656C65637465640A002053697A653A200046696C65206F70B9
:20406000656E65643A20002066696C653A2000646F696E67006672657368004E6F772000B3
:20408000454E4420535542524F5554494E450A002220706F73002220706172656E743A2253
:2040A00000535542524F5554494E452043414C4C207461726765743A22004B494C4C4544FC
:2040C0002E2000747279696E6720746F2063616C6C207375622D67636F64652066696C65DD
:2040E00073207769746820746F6F206D616E79206C6576656C732E204D4158206C6576657F
:204100006C2069733A006F70656E206661696C65642C2046696C653A200025697300256911
:204120006D20256973002569682025696D2025697300256964202569682025696D202569EE
:20414000730025697920256964202569682025696D2025697300656E7175657565696E674B
:2041600020220053544F505045442E20005072696E7465722073746F70706564206475652F
:2041800020746F206572726F72732E2046697820746865206572726F7220616E64207573E4
:2041A00065204D39393920746F20726573746172742E202854656D70657261747572652036
:2041C00069732072657365742E205365742069742061667465722072657374617274696E1B
:2041E00067290A004E6F20436865636B73756D2077697468206C696E65206E756D626572C8
:204200002C204C617374204C696E653A20004E6F20436865636B73756D2077697468206C44
:20422000696E65206E756D6265722C204C617374204C696E653A2000636865636B73756D64
:20424000206D69736D617463682C204C617374204C696E653A20004C696E65204E756D62CC
:204260006572206973206E6F74204C617374204C696E65204E756D6265722B312C204C61C0
:204280007374204C696E653A20004D313130004D33310053442072656164206572726F7208
:2042A0000A00446F6E65207072696E74696E672066696C650A0020496E76616C69642065AD
:2042C0007874727564657220000000A0C0000020C100000000000057430000574300004DEE
:2042E00043416E796375626963206933204D6567612052656164792E005072696E74696ED0
:20430000672E2E2E005072696E742070617573656400424C546F756368204F44204D6F6479
:2043200065004D323830205030205331353000424C546F756368203556204D6F6465004D5A
:204340003238302050302053313430005357204465706C6F7920424C546F756368004D32B4
:204360003830205030205336300053746F7720424C546F756368004D323830205030205304
:204380003930004465706C6F7920424C546F756368004D3238302050302053313000424CAD
:2043A000546F7563682053656C662D54657374004D323830205030205331323000526573CC
:2043C000657420424C546F756368004D3238302050302053313630004D61696E004D31328D
:2043E00035004D3234005072696E742061626F72746564005072696E742066726F6D205373
:20440000440053746F70207072696E7400526573756D65207072696E74004E6F2053442013
:2044200063617264005061757365207072696E7400436F6E74726F6C0050726570617265E7
:204440000054756E6500496E666F2073637265656E004368616E67652066696C616D656E52
:2044600074004368616E67652066696C616D656E74004D36303020423000466C6F770046BF
:204480006C6F7700466C6F770046616E2073706565640046616E2073706565640046616E91
:2044A000207370656564004265640042656400426564004E6F7A7A6C65004E6F7A7A6C65A6
:2044C000004E6F7A7A6C650046616465204865696768740046616465204865696768740088
:2044E0004661646520486569676874005370656564005370656564005370656564004D6152
:20450000696E005654726176206D696E005654726176206D696E005654726176206D696EBF
:2045200000566D696E00566D696E00566D696E00566D6178204500566D6178204500566DE8
:204540006178204500566D6178205A00566D6178205A00566D6178205A00566D61782059C6
:2045600000566D6178205900566D6178205900566D6178205800566D6178205800566D61C5
:20458000782058004D6F74696F6E00416D6178204500416D6178204500416D6178205A00DC
:2045A000416D6178205A00416D6178205900416D6178205900416D6178205800416D617874
:2045C000205800412D74726176656C00412D74726176656C00412D726574726163740041C7
:2045E0002D7265747261637400416363656C00416363656C004D6F74696F6E000000210052
:20460000240027002A002D003000330001010000040107010A0100002200250028002B00E1
:204620002E003100340002010000050108010B01000020002300260029002C002F003200AA
:204640000001000003010601090105050505070508080808020202020A0A080804040404C8
:2046600001010101010101010303030303030303040707070C0C0C0C0C0C0C0C0202020299
:2046800006060606060606060B0B0B0B0B0B0B0B01021020200808102040102040800201CC
:2046A000020108040201010204081020408080402010080402018004020180402010080467
:2046C0000201080402010102040810204080010204081020408000000A0B02090C0D0E087B
:2046E0000703040100000000000000000000000000000000000000000000000000000000AB
:20470000000012111000000000000000000000000000000000000000000000002CFFFFFF3D
:20472000FFFF0001010101016265640A002C2073797374656D2073746F70706564212048A8
:2047400065617465725F49443A20004265642068656174696E67206661696C6564004865C5
:204760006174696E67206661696C65640045312048656174696E67206661696C656400487E
:20478000656174696E67206661696C6564004B494C4C45442E200070012C0190012701B012
:2047A000012201C0011D01F00118011002130130020E016002090190020401C002FF0000C1
:2047C00003FA004003F5008003F000D003EB002004E6007004E100E004DC004005D700C078
:2047E00005D2004006CD00D006C8008007C3003008BE00F008B900C009B400B00AAF00B0AA
:204800000BAA00D00CA500000EA000500F9B00C01096005012910000148C00C0158700B0B5
:20482000178200B0197D00D01B7800001E730040206E0090226900F024640040275F0090EE
:20484000295A00E02B5500102E500020304B0010324600E033410090353C00103737007081
:20486000383200A0392D00B03A2800A03B2300603C1E00103D1900903D1400103E0F0070EA
:204880003E0A00C03E0500003F0000403FFBFF803FF6FFC03FF1FF001602220211241FBE24
:2048A000CFEFD1E2DEBFCDBF00E00CBF14E0A0E0B2E0EEE9F6ED02E00BBF02C007900D924F
:2048C000A035B107D9F72BE1A0E5B4E001C01D92A73DB207E1F714E2CDE4D4E200E006C06E
:2048E00021970109802FFE010F949767CC34D10780E00807A9F70F94FE510D943D6B0C94E5
:2049000000002F923F924F925F926F927F928F929F92AF92BF92CF92DF92EF92FF920F93B7
:204920001F93CF93DF93CDB7DEB7C354D1090FB6F894DEBF0FBECDBF11E010938211809168
:20494000DA198D3409F49AC4843511F40C949638873411F00C94E2388091D8199091D91991
:204960008B31910509F40CC2A4F48430910534F482309105A4F597FF2BC07CC48430910524
:2049800009F4BFC14A9709F075C40E9481510C94E4388A32910509F413C354F48D31910596
:2049A00009F435C20CF41CC24E9709F434C262C48B35910509F4DCC38C35910509F4DCC342
:2049C0008A35910509F056C4109255040C94E4388091710281110C94E9380C94E438209174
:2049E0007102222311F40C94E43811E0029709F010E00E942BE519821A821B821C821D8208
:204A00001E821F82188682E50E941550882309F428C10E94954F4B015C0120E030E0A901CF
:204A20000F94C762882309F432C18091650490916604A0916704B091680488A799A7AAA701
:204A4000BBA78091690490916A04A0916B04B0916C048CA79DA7AEA7BFA78091D71190914A
:204A6000D811A091D911B091DA1188AB99ABAAABBBAB8091DB119091DC11A091DD11B09169
:204A8000DE118CAB9DABAEABBFAB28A939A94AA95BA968A579A58AA59BA50F94C762811143
:204AA0000DC02CA93DA94EA95FA96CA57DA58EA59FA50F94C762882309F4E9C020E030E098
:204AC000A901C501B4010F94C762881F8827881F181729F080E090E0A0E8BFEB04C080E07A
:204AE00090E0A0E8BFE38CAF9DAFAEAFBFAF28A539A54AA55BA568A979A98AA99BA90F94E3
:204B00009F6768AF79AF8AAF9BAF2CA53DA54EA55FA56CA97DA98EA99FA90F949F676B0154
:204B20007C0128AD39AD4AAD5BADCA01B9010F942D632B013C01A7019601C701B6010F94BC
:204B40002D639B01AC01C301B2010F94A0670F944E6A2B013C0120E030E040E05FE30F9482
:204B60002D6324966CAF7DAF8EAF9FAF2497A5019401C501B4010F942D634B015C01249612
:204B80002CAD3DAD4EAD5FAD2497CA01B9010F942D639B01AC01C501B4010F949F670F94C8
:204BA0004E6A2CAD3DAD4EAD5FAD0F942D634B015C01C701B6019058A30192010F949A6854
:204BC000A50194010F942D636B017C0128A939A94AA95BA968A579A58AA59BA50F94A06790
:204BE00020E030E040E05FE30F942D639B01AC01C701B6010F94A06728A539A54AA55BA504
:204C00000F949F6769837A838B839C832CA93DA94EA95FA96CA57DA58EA59FA50F94A067C7
:204C200020E030E040E05FE30F942D636B017C01A301920168AD79AD8AAD9BAD0F949A6850
:204C4000A50194010F942D639B01AC01C701B6010F94A0672CA53DA54EA55FA50F949F6721
:204C600012C089E40E941550882331F00E94954F69837A838B839C838AE40E941550882366
:204C800031F00E94954F6D837E838F83988720E030E0A90169817A818B819C810F94C762B7
:204CA00081110EC020E030E0A9016D817E818F8198850F94C762811103C0E7E5FCE20DC028
:204CC000412FBE016F5F7F4F87ED91E10F941D180C94E4380F946B35F80184918F010F5F40
:204CE0001F4F8111F7CFE1E6F5E084918F010F5F1F4F882311F40C94E4380F946B35F80129
:204D0000F4CF80E50E941550882329F00F9479346B017C0103C0C12CD12C760183E50E9439
:204D20001550882361F00E94954F20E030E04AE754E40F942D630F9413696B017C010E9436
:204D4000D5798091FC07811105C060E087E795E00E94CBA80F940D49C60ED71EE81EF91E83
:204D60000F940D49DC01CB018C199D09AE09BF09B7FD02C00C94E43880E00E9486CDF0CF81
:204D80000F945D2E81110C94E43880E090E0A0EAB0E489839A83AB83BC8380E090E0ADE4B2
:204DA000B3E48D839E83AF83B88780E090E0A0EAB1E489879A87AB87BC8780E50E941550B9
:204DC000882319F00E94614F01C060E068A3BE016F5F7F4FCE0180960E94677E0C94E4383E
:204DE00080915B048770873011F00C94EE388FE40E941550882319F00E94854F03C08FE4F4
:204E00000E94CC4F81110C94E4380C94EE380E94EAEA0C94E438C0906504D0906604E0909C
:204E20006704F090680488E50E941550811109C020E030E044E152E4C701B6010F94A067B8
:204E400002C00E94954F68A379A38AA39BA3C0906904D0906A04E0906B04F0906C0489E5B0
:204E60000E941550811109C020E030E040E351E4C701B6010F949F6702C00E94954F9B015C
:204E8000AC0169837A838B839C8368A179A18AA19BA10E9481CC882311F40C94E43880E00A
:204EA0000E94A9E70E9498E985E40E941550882321F00E94854F182F04C085E40E94CC4FCA
:204EC00011E086E50E941550882321F00E94614F262F01C021E0412FBE016F5F7F4FCE01B0
:204EE00080960F94D9026B017C019B01AC010F94926A81115FC088A099A0AAA0BBA020E096
:204F000030E0A901C501B4010F94C76287FF05C027E137EB41E558EB04C027E137EB41E59E
:204F200058E3C501B4010F94A067AB01BC018AE895E00F94EC1389809A80AB80BC8020E095
:204F400030E0A901C501B4010F94C76287FF05C027E137EB41E558EB04C027E137EB41E55E
:204F600058E3C501B4010F94A067AB01BC0185E895E00F94EC1320E030E0A901C701B601AB
:204F80000F94C76287FF05C027E137EB41E558EB04C027E137EB41E558E3C701B6010F94F6
:204FA000A067AB01BC0180E895E00F94EC138AE00F946B350E947FE90F94C1250C94E43806
:204FC00080917102882311F40C94E43889E40E941550082F882321F00E94614FE62E01C053
:204FE000E12C8AE40E941550182F882321F00E94614FF62E01C0F12C002319F094E09E1585
:2050000028F0112389F0A4E0AF1570F4E2E9F5E084918F010F5F1F4F882311F40C94E43892
:205020000F946B35F801F4CF0E9422500023F1F020913211309133114E2D4203B001439F0D
:20504000700D11248091F0079091F107680F791F072E000C880B990B0F94CE626093D71148
:205060007093D8118093D9119093DA111123F1F020913411309135114F2D4203B001439FD3
:20508000700D11248091F2079091F307680F791F072E000C880B990B0F94CE626093DB1100
:2050A0007093DC118093DD119093DE1180E50E9415508823E9F00E94854F8823A9F100231F
:2050C000D9F020E030E044E152E46091D7117091D8118091D9119091DA110F949F67609336
:2050E000D7117093D8118093D9119093DA1104C080E50E94CC4FE1CF1123B1F020E030E056
:2051000040E351E46091DB117091DC118091DD119091DE110F94A0676093DB117093DC11E4
:205120008093DD119093DE1186E40E9415508823D9F00E94954F6B017C0120E030E0A9014E
:205140000F94006A181684F420E030E040E752E4C701B6010F949A6860935A0270935B025C
:2051600080935C0290935D020F94311C0C94E438109355040C94E438E6E72E2EE2E03E2E81
:20518000FCEFEF2EF0E1FF2E85E694E099A788A7ABE9CA2EA1E1DA2E00E010E0D1018D91E5
:2051A0001D010E941550882309F44BC00E94954F2B013C01133049F0F6012081318142819F
:2051C00053810F949F672B013C01A8A5B9A52D913D914D915C91C301B2010F949F674B017B
:2051E0005C012DEB37E346E855EB0F94006A87FD0AC02DEB37E346E855E3C501B4010F94A1
:20520000C7621816F4F4133051F44092710450927204609273047092740401E012C0A501EC
:205220009401F70160817181828193810F94A067D7016D937D938D939C931397812F0F9419
:20524000F2331F5FB4E0EB0EF11CE8A5F9A53496F9A7E8A7F4E0CF0ED11C143009F09ECFA5
:20526000002321F081E794E00F94DC010F94C1250C94E4380F940C060C94E4388091D819E6
:205280009091D9198837910511F40C949E310CF02AC18D34910509F4CCC40CF09AC08A3156
:2052A000910509F45DC3ECF58431910509F44AC27CF48131910509F4C0C22CF4029708F41A
:2052C00044C20C949338429709F4A4C60C9493388731910509F404C374F48531910509F4EF
:2052E000FBC2469711F00C94933810922D0B10922E0B0C94E4388831910509F407C3499741
:2053000011F00C94933810922D0B0F946F4F8DEE95E090937604809375040F94DA350C947B
:20532000E4388032910509F4C5C3ACF58D31910511F40C94E43894F48B31910509F41EC316
:205340004C9711F00C94933840E060E08091D6199091D7190F94ED2F0C94E4388E319105BD
:2053600009F4A4C34F9711F00C9493380F94204F68A379A38AA39BA3BE016F5F7F4FCE01A9
:2053800080960F94893460E0CE0101960E9405A9ECE6FCE2DBC38133910509F421C464F4CF
:2053A0008A32910509F4E8C3C09711F00C9493380E9464EF0C94E4388B34910509F435C434
:2053C0008C34910511F00C9493380F946F4F0C94E4388B36910509F468C50CF043C08435B5
:2053E000910509F417C6E4F48135910509F4F7C54CF48E34910511F00C9493380F94DD28B4
:205400000C94E4388235910509F400C68335910511F00C94933881E0809354040C94E4387E
:205420008836910509F409C49CF48535910509F4F5C58C35910511F00C94933846E7C42ED5
:2054400042E0D42E57EBE52E51E1F52E10E001C68936910509F4AFC48A36910509F407C5E3
:205460000C9493388137910509F478C4F4F48E36910509F40DC474F48C36910511F40C94C5
:20548000E4388D36910511F00C9493380F94EC290C94E4388F36910509F40DC48037910541
:2054A00011F40C94E4380C9493388537910509F4EAC664F48237910509F44BC683379105BC
:2054C00011F00C949338EBE6F7E081C68637910509F4E8C68737910511F00C9493380E9411
:2054E000AB7F0C94E438833621E0920709F426C10CF08BC08D3C910511F40C941D33DCF523
:205500008B39910509F472C4D4F48D37910509F4DEC45CF48937910511F00C949338109289
:205520003106109230060C94E4388C38910509F484C48139910509F406C70C949338893CB7
:20554000910511F40C946B3254F48E3B910509F48AC4883C910509F46EC70C9493388B3CC3
:20556000910511F40C948D328C3C910511F40C94A8320C949338883141E0940711F40C94CF
:20558000633404F58C3D910511F40C94BE3374F48E3C910511F40C949C33833D910511F0F3
:2055A0000C9493380F94AC240C94E4388D3D910511F40C94CB33823E910511F40C943A34E5
:2055C0000C9493388E32B1E09B0711F40C9437357CF48C32F1E09F0711F40C940E358D3210
:2055E000914011F00C9493380F9409240C94E4388F3231E0930711F40C948B35803391408D
:2056000011F40C948E350C949338873FA1E09A0711F40C94CD360CF049C0843AE1E09E07FE
:2056200011F40C942D36ECF4813921E0920711F40C9421364CF48039914011F00C949338FC
:205640000E94D5790C94E4388239A1E09A0711F40C9427368A39914011F40C94E4380C94CA
:205660009338843FE1E09E0711F40C94C7367CF4853A21E0920711F40C9430368C3A914029
:2056800011F00C9493380E94AEDA0C94E438853F41E0940711F40C94CA36863F914011F0FC
:2056A0000C9493380E94B5AC0C94E4388335B3E09B0711F40C94BE370CF58835F2E09F0703
:2056C00011F40C9405376CF4883F31E0930711F40C94D8368C30924011F40C94FC360C945F
:2056E00093388B35A2E09A0711F40C9408378A39924011F40C9491370C9493388B38E3E025
:205700009E0711F40C94E4386CF4883723E0920711F40C9423388438934011F40C942638D6
:205720000C949338803A43E0940709F402C2873E934011F40C947E380C949338E7E5FCE2BD
:205740000C940E36ECEDF5E089C0A090D619B090D71980E50E941550882359F00F9479346F
:205760006B017C0111E0672B682B692B31F410E004C010E0C12CD12C760183E50E941550FD
:20578000882311F40C947A390E94954F20E030E04AE754E40F942D630F9413696B017C01CC
:2057A00011110BC0672B682B692B39F4A114B10421F0F5018081811102C010E001C011E0AE
:2057C0000E94D579112329F061E0C5010E9405A905C060E081EB95E00E94CBA883E08093C4
:2057E000821181E080935604C114D104E104F104B1F00F940D49C60ED71EE81EF91E0F94A1
:205800000D49DC01CB018C199D09AE09BF09B7FF0EC08091560481110C947F3908C080910D
:205820005604882321F080E00E9486CDF8CF0F947F3B109256040C94E43860E084EC95E0FC
:205840000E94CBA85F988A98479880910801817080930601479812980C94E43884918F012C
:205860000F5F1F4F882321F00F946B35F801F6CF1092AB0D8EE59BE00E940CC98BE1EEE591
:20588000FBE0DE01159601900D928A95E1F780915C0B90915D0B9C838B8384E193E09A8359
:2058A000898340E050E0BE016F5F7F4F80E090E00E94CFBDCE0101960E94EBCCEDECF5E0C6
:2058C00084918F010F5F1F4F882311F40C94E4380F946B35F801F4CF0E947FBA0C94E43845
:2058E000E091D619F091D7198081882329F0803209F410823196F8CF40E061E08091D619E2
:205900009091D7190F94ED2F0C94E43880E090E0A0E0B0E489839A83AB83BC8318A219A20C
:205920001AA21BA21CA21DA21EA21FA280911808882359F020E0AE014F5F5F4FBE01605E43
:205940007F4FCE0184960F94670780912E0B882319F081E080932D0B0F943D140C94E43825
:2059600080912E0B882311F40C94E43883E50E94155081110C9484390C94E43883E40E944E
:20598000CC4F882309F450C0EFE1F6E084918F010F5F1F4F882321F00F946B35F801F6CF50
:2059A0008091F90C811103C0E2EFF5E012C0BE016F5F7F4F86EF9CE00E9476978E010F5F0C
:2059C0001F4FD8018D918D01882349F10F946B35F8CF84918F010F5F1F4F882301F10F9424
:2059E0006B35F801F6CF71E5C72E76E0D72EE12CF12C20E08091961190E00E2C02C095952B
:205A000087950A94E2F780FD86C1EFEFEE1AFE0AF2E0CF0ED11C35E0E316F10459F78AE0E8
:205A20000F946B350C94E43880912E0B882339F080912D0B882319F0ECEFF5E003C0EEE00B
:205A4000F6E028C084918F010F5F1F4F882321F00F946B35F801F6CF6091A70D7091A80DEF
:205A60008091A90D9091AA0D4AE00F94BB388FE20F946B356091A30D7091A40D8091A50DFD
:205A80009091A60D4AE00F94BB388AE00F946B350C94E43884918F010F5F1F4F882311F4D8
:205AA0000C94E4380F946B35F801F4CF0E9446F70C94E43880912D0B81110E94D5798091B4
:205AC0002E0B882311F40C94E43880E50E941550882319F00E94854F03C080E50E94CC4FA6
:205AE000182F482F61E08091D6199091D7190F94ED2F83E50E941550882381F00E94614FFA
:205B0000AB01BC014093A70D5093A80D6093A90D7093AA0D86EF9CE00E947D9180912E0BAF
:205B2000882319F081E080932D0B11110C94E43813CF8091D6199091D71921E020932C0B49
:205B400040E060E00F94ED2F0C94E43884918F010F5F1F4F882321F00F946B35F801F6CF2C
:205B6000BE016F5F7F4F8EE296E00F9422148AE00F946B350C94E43883E50E941550882388
:205B800011F40C94E4380E94714FE82E80E50E941550882339F00E94714F182F87FF03C09A
:205BA0000C94E4381DE089E40E941550882341F00E94854F81110C94C139E7EDF8E00BC0C3
:205BC00089E40E94CC4FF6CF3196B9E0E730FB0711F40C94C13984911813F6CF0C9495394B
:205BE000F090500481E0F826F0925004E6E4F6E084918F010F5F1F4F882321F00F946B355C
:205C0000F801F6CFFF2019F0EBE3F6E002C0E0E4F6E084918F010F5F1F4F882311F40C94CD
:205C2000E4380F946B35F801F4CF0F943D140C94E4380F9484140C94E43888E690E00F9421
:205C4000723581110C94E4388091961183FF02C00C94E43883E50E9415508823A9F00E9442
:205C6000954F0F940C69CB010E9466A80E94954F20E030E04AEA52E40F94C762181624F09E
:205C80000F9484140F947F3B0F9409160C94E4388EE40E941550882311F40C94E4380E9467
:205CA000614F6093AA1A7093AB1A8093AC1A9093AD1A0C94E43883E50E94CC4F882359F01D
:205CC00083E50E941550882319F00E94714F01C080E080939611ECE6FCE284918F010F5FA1
:205CE0001F4F811103C0EFE5F6E004C00F946B35F801F3CF84918F010F5F1F4F882321F038
:205D00000F946B35F801F6CF8091961181116BCEEBE5F6E018C0BB24B394B20E222319F04D
:205D20008CE20F946B35F60185919491FC0184918F010F5F1F4F882321F00F946B35F8010A
:205D4000F6CF2B2D62CE84918F010F5F1F4F882309F465CE0F946B35F801F5CF83E50E9490
:205D60001550811103C0ECE6FCE20DC00E94714F8D3320F4809328020C94E4388CE380933B
:205D800028020C94E43884918F010F5F1F4F882321F00F946B35F801F6CF4091280250E0B4
:205DA00060E070E086E696E00F94CF138AE00F946B350C94E43889E690E00F9472358111C8
:205DC00011C0EDE6F6E084918F010F5F1F4F882321F00F946B35F801F6CF0E9483898AE0F3
:205DE0000F946B35109282110C94D63983E50E941550882311F40C94E4380E94714F182FF8
:205E00008D3308F01CE31093FB100F940D496B017C01212F30E0A8EEB3E00F945467C60E80
:205E2000D71EE81EF91EC092F710D092F810E092F910F092FA100C94E4388091961183FF90
:205E400002C00C94E43883E50E941550882311F40C94E4380E94954F0F940C69CB010E94DD
:205E600073510C94E4380F94EB260C94E43880E50E941550811106C083E50E941550882354
:205E800061F006C00E94714F81110C94E438F4CF0E94614F6F3F710510F06FEF70E0709351
:205EA0001708609316080C94E43880E50E941550811106C010921708109216080C94E438F5
:205EC0000E94614F672B11F00C94E438F3CF8CE40E94CC4F882381F00E94954F6B017C01A7
:205EE00020E030E0A9010F94006A87FF0BC0F7FAF094F7F8F09406C0C12CD12C60E8E62E96
:205F000060E4F62EF7FAF094F7F8F094CCA2DDA2EEA2FFA280E090E0A0EAB0E489839A83FC
:205F2000AB83BC8380E090E0ADE4B3E48D839E83AF83B88780E090E0A0EAB1E489879A873A
:205F4000AB87BC8788E50E941550882379F088E50E941550882319F00E94954F03C060E093
:205F600070E0CB0169837A838B839C8389E50E941550882379F089E50E941550882319F03D
:205F80000E94954F03C060E070E0CB016D837E838F8398878AE50E941550882379F08AE541
:205FA0000E941550882319F00E94954F03C060E070E0CB0169877A878B879C8718A219A2E6
:205FC0001AA21BA220E0AE01405E5F4FBE016F5F7F4FCE0184960E94FAF50C94E4380E941A
:205FE000AB8B0E94137A109217081092160868EE73E080E090E00E94C8A760E080E796E014
:206000000E94CBA80E94F0390C94E438109254040C94E4380F948B260C94E43883E50E9414
:20602000CC4F882311F40C94E4380E94954F20E030E04AE754E40F942D630F941369609395
:20604000F3107093F4108093F5109093F6100C94E438D6018D916D010E94CC4F882309F471
:206060006DC0133009F063C00E94954F4B015C0120E030E040EA51E40F94C76287FF4EC096
:20608000A50194016091C3117091C4118091C5119091C6110F949A682B013C019B01AC01F4
:2060A0006091F4127091F5128091F6129091F7120F942D636093F4127093F5128093F6124D
:2060C0009093F712A30192016091301B7091311B8091321B9091331B0F942D636093301B96
:2060E0007093311B8093321B9093331B6091191370911A1380911B1390911C130F94CC62D5
:20610000A30192010F942D630F9413696093191370931A1380931B1390931C138092C3112E
:206120009092C411A092C511B092C61107C00E94954FF70160837183828393831F5FF4E0BE
:20614000EF0EF11C143009F084CF0F94AA170C94E4380E94D57983E50E941550882309F47E
:2061600085C80E94614F6230710509F07FC80F940B208BE50F946B356091651A7091661AC6
:206180008091671A9091681A42E00F9444394091691A50916A1A60916B1A70916C1A89E861
:2061A00096E00F94EC1340916D1A50916E1A60916F1A7091701A86E896E00F94EC138DE509
:2061C0000F946B358AE00F946B350C94E43884918F010F5F1F4F882321F00F946B35F8019A
:2061E000F6CF60E08BE597E00F948A2561E084E597E00F948A2561E089E497E00F948A2577
:2062000061E089E397E00F948A2560E080E397E00F948A2561E086E297E00F948A2561E0E9
:206220008CE197E00F948A2561E084E197E00F948A2561E086E097E00F948A2560E088EF92
:2062400096E00F948A2560E089EE96E00F948A2560E08BED96E00F948A2560E085EC96E050
:206260000F948A2561E084EB96E00F948A2560E08FE996E00F948A2561E08CE896E00F9406
:206280008A250C94E4388091D6199091D719DC012C91222321F060E00E9405A995C70F9403
:2062A0007F3B92C70091D6191091D71983E0D12C40E08150E1F0F8019081292F2B7F213437
:2062C000C1F721812133A9F7913421F0953421F441E002C0DD24D39498012E5F3F4F890133
:2062E0002F5F3F4FD8019C919032C9F3E2CF442369F0ECE6FCE284917F01BFEFEB1AFB0A90
:20630000882321F00F946B35F701F5CFDD2069F0E1E6F8E084917F012FEFE21AF20A882377
:2063200021F00F946B35F701F5CFD8018D918D01882309F474CB0F946B35F7CF10933106FE
:206340001093300641C783E50E941550882319F00E94614F02C060E070E08B01112702309F
:206360001105D4F0E7E5FCE284918F010F5F1F4F811103C0E5E6F8E004C00F946B35F80120
:20638000F3CF84918F010F5F1F4F882309F41CC70F946B35F801F5CF88E40E941550882311
:2063A000A9F00E94614F6A3A71053CF06F30B1E07B072CF06EE071E002C06AEA70E0F801E0
:2063C000EE0FFF1FE759FE4E7183608386E40E9415508823A9F00E94614FF801EE0FFF1F24
:2063E000E359FE4E718360836F3F710519F014F06FEF70E077FF02C060E070E071836083C0
:2064000082E40E941550882309F4DEC60E94614F6530710534F0693771052CF068E770E071
:2064200002C065E070E0000F111FF801EB59FE4E71836083C9C688EC90E00F947235811117
:20644000C3C684E40E94CC4F882309F441C00E94954F6B017C0111E020E030E0A9010F9428
:20646000C762811101C010E01093041320E030E0A901C701B6010F94C762882349F10E946A
:20648000954FE091F70524E0E29FF0011124E050FD4E608371838283938320E030E0A901D9
:2064A000609100137091011380910213909103130F94C76281110CC080E090E0A0EEBFE33C
:2064C0008093001390930113A0930213B09303130E94246979C6B6E7EB2EB2E0FB2E04E3F8
:2064E0001BE184E4C82E8BE1D82ED7018D917D010E94CC4F882349F00E94954F0F94136916
:20650000F80160837183828393830C5F1F4FC016D10659F70F94391657C6A6E7EA2EA2E084
:20652000FA2E04E21BE1D7018D917D010E94CC4F882339F00E94954FF801608371838283F1
:2065400093830C5F1F4FFBE104331F0761F73CC683E50E9415508823A1F00E94954F609395
:20656000481B7093491B80934A1B90934B1B6093441B7093451B8093461B9093471B10E0B2
:2065800001C011E080E50E941550882359F00E94954F6093481B7093491B80934A1B90930B
:2065A0004B1B10E082E50E941550882359F00E94954F60937E1170937F11809380119093C1
:2065C000811110E084E50E941550882359F00E94954F6093441B7093451B8093461B909303
:2065E000471BF2C5112309F4EFC54091481B5091491B60914A1B70914B1B8DE898E00F94D7
:20660000EC1340917E1150917F1160918011709181118AE898E00F94EC134091441B5091F8
:20662000451B6091461B7091471B87E898E00F94EC138AE00F946B35C7C581E50E94CC4F60
:20664000882351F00F9479346093740570937505809376059093770583E50E94CC4F882318
:2066600051F00E94954F6093201B7093211B8093221B9093231B84E50E94CC4F882351F023
:206680000E94954F60931C1B70931D1B80931E1B90931F1B88E50E94CC4F882351F00E94AE
:2066A000954F6093E8127093E9128093EA129093EB1289E50E94CC4F882351F00E94954F3F
:2066C0006093EC127093ED128093EE129093EF128AE50E94CC4F8823F1F00E94954F60935F
:2066E000F0127093F1128093F2129093F3122DEC3CEC4CEC5DE30F94C762181664F0EDE976
:20670000F8E084918F010F5F1F4F882321F00F946B35F801F6CF85E40E94CC4F882309F495
:2067200053C50E94954F6093F4127093F5128093F6129093F71248C5E6E7CE2EE2E0DE2ECD
:20674000F3E3EF2EF6E0FF2E10E0D6018D916D010E94CC4F882351F00E94954FF7016083E6
:20676000718382839383812F0F94F2331F5FF4E0EF0EF11C133049F70C94362983E50E94AA
:206780001550882309F420C50E94614F709301026093000219C58DED90E00F947235811116
:2067A00013C583E50E941550811103C0ECE6FCE23BC00091F70510E00E94614F000F111F84
:2067C000F801E359FD4F718360838091F70590E08C01000F111F000F111F980127593D4F34
:2067E0007901880F991FFC01E359FD4F60817181072E000C880B990B0F94CE622AE037EDFF
:2068000043E25CE30F942D63F801E85EF44E20813181428153810F942D63D7016D937D935B
:206820008D939C931397D0C484918F010F5F1F4F882321F00F946B35F801F6CF85E40F9481
:206840006B358091F705805D0F946B35E091F705F0E0EE0FFF1FE359FD4F608171818FEC3D
:2068600098E00F94091485E20F946B358AE00F946B35AAC480E50E94CC4F882309F4A4C4E9
:206880000E94614F6B017C0183E50E941550882321F00E94614F8B0102C00FEF1FEFC8011D
:2068A0000196039708F090C4D7FC8EC48C2DE7EDF8E09491891709F438C53196B9E0E7309B
:2068C000FB07B9F735C580E50E94CC4F882309F47BC40E94614F6B017C018B01672B19F0A1
:2068E000E7E5FCE27FC083E50E94CC4F811103C0ECE6FCE207C00E94614F8AE09BE00F94E4
:20690000971262C484917F012FEFE21AF20A882321F00F946B35F701F5CF60E070E080E250
:2069200099E00F94091480910C0B28E532E06901C81AD10887FDD394CC0CDD1CCC0CDD1C25
